S00F000045464D33325F30332E733337E6
S113000000000220010300002D0300002D03000066
S11300102D0300002D0300002D0300002D0300001C
S11300202D0300002D0300002D03000071070000C4
S11300302D0300002C0300001109000059090000E1
S11300402D0300002D0300002D0300002D030000EC
S11300502D0300002D0300002D0300002D030000DC
S11300602D0300002D0300002D0300002D030000CC
S11300702D0300002D0300002D0300002D030000BC
S11300802D0300002D0300002D0300002D030000AC
S11300902D0300002D0300002D0300002D0300009C
S11300A02D0300002D0300002D0300002D0300008C
S11300B02D0300002D0300002D0300005D3E000011
S11300C02D0300002D0300002D0300002D0300006C
S11300D02D0300002D0300002D03000010B5054C76
S11300E0237833B9044B13B10448AFF300800123E0
S11300F0237010BD7C00002000000000CC560000DE
S113010008B5034B1BB103490348AFF3008008BD96
S11301100000000080000020CC560000154B002B8E
S113012008BF134B9D46A3F5803A00218B460F462A
S11301301348144A121A04F0BAF90F4B002B00D0DA
S113014098470E4B002B00D0984700200021040054
S11301500D000D48002802D00C48AFF3008004F0D5
S113016077F92000290003F0A5FF04F05DF900BF32
S11301700000080000000220000000000000000051
S11301807C00002068250020000000000000000022
S113019080B582B000AF0121104802F0A9FD012111
S11301A00F4802F0A5FD00237B600FE00D4A7B6839
S11301B012F833000B4A7B68DB00134459680023B0
S11301C0042203F041F87B6801337B607B68012BD8
S11301D0ECDD002318460837BD4680BD408104008D
S11301E000D204002053000080B582B000AF3A4B27
S11301F05B6C394A43F400535364384BD3F82031D1
S1130200364A43F00403C2F82031344BD3F820318A
S1130210324A23F44073C2F82031304BD3F8B8305B
S11302202E4A23F47063C2F8B8302C4BD3F8B8309C
S11302302A4A43F48063C2F8B830274B10221A626A
S113024000BF254BDB6A03F02003002BF9D0244BBD
S11302501B68234A43F001031360214BDB68204AE7
S113026043F08073D3601F4B1F4A1A601F4802F08B
S1130270ADFD034603F5D52303F2FC437B607B68A5
S1130280DB081B4AA2FB03239B0A3B60194A3B6819
S1130290013B1361174B0222C3F8F020154B4FF4B6
S11302A08072C3F804234FF06043134AC3F8B02F9D
S11302B04FF06043114AC3F8802E4FF06043D3F8E7
S11302C0003E4FF0604243F00103C2F8003E0123B8
S11302D018460837BD4680BD00800C4000600040D1
S11302E0F0ED00E0001000E0FF13014006000E00F6
S11302F017916502000004E055CEACC50900010069
S1130300064880470649074A074B9A42BEBF51F840
S1130310040B42F8040BF8E7FFF700FF7D0400002C
S1130320D8560000000000207C000020FEE700BF3B
S113033080B400AF034BDB6C1B0EDBB21846BD462A
S113034080BC7047B081E00F80B582B000AF00F090
S113035015F87860074B5B6803F00F037A6822FA9C
S113036003F37B60044A7B6813607B681846083794
S1130370BD4680BD00800C400800002080B582B0DE
S113038000AF334BDB6A03F47053B3F5805F0AD0DC
S1130390B3F5005F03D0B3F5006F08D00BE02D4B2D
S11303A01B687B6047E04FF400437B6043E02A4BCB
S11303B01B687B603FE0264BDB6803F4E063B3F526
S11303C0007F1BD0B3F5007F05D8002B24D0B3F5F4
S11303D0807F16D02BE0B3F5806F09D0B3F5A06F02
S11303E003D0B3F5407F06D021E01C4B7B6021E0B5
S11303F01B4B7B601EE01B4B7B601BE01A4B7B603E
S113040018E0FFF795FF0346122B02D9174B7B60C8
S113041010E0174B7B600DE0FFF78AFF0346122BB9
S113042002D9144B7B6005E0134B7B6002E0002390
S11304307B6000BF00BF064B1B689B0B03F00703E8
S113044001337A68B2FBF3F318460837BD4680BD22
S113045000800C400400002000000020003FAB019D
S1130460406F4001809FD500C0D8A70040B564000C
S1130470C0CF6A00804F120040420F0080B400AF2A
S1130480034B044A9A6000BFBD4680BC704700BF5E
S113049000ED00E00000000080B400AF4FF4004322
S11304A01846BD4680BC704780B400AF4FF47A73E1
S11304B01846BD4680BC704780B400AF024B1B6831
S11304C01846BD4680BC70470400002080B584B047
S11304D000AF78600023FB607B6803F00703002B08
S11304E004D07B6823F0070308337B6001F072F8C3
S11304F0164B1B68002B05D1154B23F007031A4636
S1130500124B1A60134B1A687B68134442F21F3271
S1130510934213D80F4B1A687B681A440D4B1B681F
S11305209A420BD9094B1A680A4B1B681344FB60A7
S1130530084B1A687B681344064A136001F058F8A4
S1130540FB6818461037BD4680BD00BFC423002099
S1130550A0000020C023002080B582B000AF7860E6
S11305607B68002B03D0B821034802F019F800BFC0
S11305700837BD4680BD00BF3053000080B483B04F
S113058000AF78607B6803F108027B685A607B687F
S11305904FF0FF329A607B6803F108027B68DA60EF
S11305A07B6803F108027B681A617B6800221A6089
S11305B000BF0C37BD4680BC704780B483B000AF29
S11305C078607B6800221A6100BF0C37BD4680BC8E
S11305D0704780B485B000AF786039607B685B6831
S11305E0FB603B68FA685A60FB689A683B689A60EB
S11305F0FB689B683A685A60FB683A689A603B6893
S11306007A681A617B681B685A1C7B681A6000BF91
S11306101437BD4680BC704780B485B000AF7860A5
S113062039603B681B68BB60BB68B3F1FF3F03D113
S11306307B681B69FB600CE07B680833FB6002E0AD
S1130640FB685B68FB60FB685B681B68BA689A427E
S1130650F6D2FB685A683B685A603B685B683A6844
S11306609A603B68FA689A60FB683A685A603B682B
S11306707A681A617B681B685A1C7B681A6000BF21
S11306801437BD4680BC704780B485B000AF786035
S11306907B681B69FB607B685B687A6892689A6018
S11306A07B689B687A6852685A60FB685B687A6802
S11306B09A4203D17B689A68FB685A607B6800227F
S11306C01A61FB681B685A1EFB681A60FB681B688A
S11306D018461437BD4680BC7047000080B485B00E
S11306E000AFF860B9607A60FB68043BFB60FB68AC
S11306F04FF080721A60FB68043BFB60BB6823F018
S11307000102FB681A60FB68043BFB60084AFB6853
S11307101A60FB68143BFB607A68FB681A60FB682C
S1130720203BFB60FB6818461437BD4680BC70470D
S11307303507000080B582B000AF094B1B68B3F1E8
S1130740FF3F03D0FF21074801F02AFF4FF0BF030A
S113075083F31188BFF36F8FBFF34F8F7B60FEE786
S11307600C000020505300000000000000000000B6
S1130770074B19680868B0E8F00F80F30988BFF3E5
S11307806F8F4FF0000080F311884EF00D0E70470C
S1130790D023002000BF00BF06480068006880F333
S11307A0088862B661B6BFF34F8FBFF36F8F00DF67
S11307B000BF00BF08ED00E080B584B000AF284B57
S11307C0FB60FB681B78DBB2BB60FB68FF221A701E
S11307D0FB681B78DBB2FB71FB79DBB223F04003CF
S11307E0DAB2204B1A70204B07221A6009E01E4B24
S11307F01B68013B1C4A1360FB79DBB25B00DBB274
S1130800FB71FB79DBB203F08003802BEFD0164B36
S11308101B681B02144A1360134B1B6803F4E06348
S1130820114A1360BB68DAB2FB681A700F4B1B687D
S11308300E4A43F47F0313600C4B1B680B4A43F0CE
S11308407F43136003F048FB094B00221A60FFF753
S1130850A3FFFFF76FFF002318461037BD4680BD86
S113086000E400E0C8230020CC23002020ED00E0B9
S11308700C00002080B582B000AF4FF0BF0383F3BB
S11308801188BFF36F8FBFF34F8F7B600B4B1B68D7
S113089001330A4A1360094B1B68012B09D1084B29
S11308A01B68DBB2002B04D04FF4C671054801F07D
S11308B077FE00BF0837BD4680BD00BF0C00002096
S11308C004ED00E05053000080B582B000AF0D4B42
S11308D01B68002B04D140F293110B4801F060FE19
S11308E0084B1B68013B074A1360064B1B68002B2F
S11308F004D100237B607B6883F3118800BF083731
S1130900BD4680BD0C0000205053000000000000D4
S1130910EFF30980BFF36F8F0D4B1A6820E9F00FD6
S113092010602DE908404FF0BF0080F3118800F0FB
S1130930BFFF4FF0000080F31188BDE8084019683C
S11309400868B0E8F00F80F30988BFF36F8F704731
S1130950D023002000BF00BF80B582B000AF4FF0AD
S1130960BF0383F31188BFF36F8FBFF34F8F7B6097
S113097000F0E4FE0346002B03D0064B4FF08052F8
S11309801A6000233B603B6883F3118800BF08377B
S1130990BD4680BD04ED00E080B582B000AFEFF34A
S11309A005837B607B680F2B0ED9104A7B68134448
S11309B01B78FB700E4B1B78FA789A4204D240F2F3
S11309C0AB210C4801F0ECFD0B4B1B6803F4E06217
S11309D00A4B1B689A4204D940F2BB21054801F036
S11309E0DFFD00BF0837BD4680BD00BFF0E300E077
S11309F0C8230020505300000CED00E0CC2300205D
S1130A0080B584B000AF786039607B68FB60FB68B8
S1130A10002B04D14FF49471294801F0C1FDFFF774
S1130A2029FFFB681A68FB68DB6BF968096C01FB3A
S1130A3003F31A44FB685A60FB6800229A63FB685C
S1130A401A68FB689A60FB681A68FB68DB6B013BF9
S1130A50F968096C01FB03F31A44FB68DA60FB686C
S1130A60FF2283F84420FB68FF2283F845203B687B
S1130A70002B14D1FB681B69002B1AD0FB681033C0
S1130A80184600F0B3FF0346002B12D00D4B4FF075
S1130A9080521A60BFF34F8FBFF36F8F09E0FB687A
S1130AA010331846FFF76AFDFB6824331846FFF736
S1130AB065FDFFF709FF012318461037BD4680BDC9
S1130AC07053000004ED00E080B58AB002AFF86016
S1130AD0B9601346FB71FB68002B04D140F29511F9
S1130AE0134801F05DFDBB68002B02D10023FB61BC
S1130AF004E0FB68BA6802FB03F3FB61FB6948335B
S1130B001846FFF7E3FCB861BB69002B0BD0BB6947
S1130B1048337B61FA79BB69009313467A69B968F3
S1130B20F86800F007F8BB6918462037BD4680BD59
S1130B307053000080B584B000AFF860B9607A608B
S1130B40FB70BB68002B03D1BB69BA691A6002E071
S1130B50BB697A681A60BB69FA68DA63BB69BA6808
S1130B601A640121B869FFF74BFF00BF1037BD4677
S1130B7080BD000080B58AB000AFF860B9607A60CB
S1130B803B6000237B62FB683B623B6A002B04D121
S1130B9040F2E621624801F003FDBB68002B08D156
S1130BA03B6A1B6C002B04D040F2E7215C4801F047
S1130BB0F7FC3B68022B08D13B6ADB6B012B04D0AA
S1130BC04FF43A71564801F0EBFC01F0A7F80346E4
S1130BD0002B07D17B68002B04D040F2EB21504856
S1130BE001F0DEFCFFF746FE3B6A9A6B3B6ADB6B67
S1130BF09A4202D33B68022B29D13A68B968386A11
S1130C0000F00CFAF8613B6A5B6A002B10D03B6A77
S1130C102433184600F0EAFE0346002B13D0414B60
S1130C204FF080521A60BFF34F8FBFF36F8F0AE00B
S1130C30FB69002B07D03B4B4FF080521A60BFF387
S1130C404F8FBFF36F8FFFF73FFE012363E07B6895
S1130C50002B03D1FFF738FE00235CE07B6A002BF6
S1130C6006D107F11403184600F01EFF01237B622E
S1130C70FFF72AFE00F0AEFCFFF7FCFD3B6A93F899
S1130C8044305BB2B3F1FF3F03D13B6A002283F8E7
S1130C9044203B6A93F845305BB2B3F1FF3F03D184
S1130CA03B6A002283F84520FFF70EFE3A1D07F148
S1130CB014031146184600F015FF0346002B24D1F7
S1130CC0386A00F0A3FA0346002B18D03B6A1033AD
S1130CD07A681146184600F041FE386A00F02EFA90
S1130CE000F086FC0346002B7FF47CAF0D4B4FF0E5
S1130CF080521A60BFF34F8FBFF36F8F72E7386A69
S1130D0000F01CFA00F074FC6CE7386A00F016FA84
S1130D1000F06EFC002318462837BD4680BD00BF96
S1130D207053000004ED00E080B58CB000AFF860B3
S1130D30B9607A603B60FB68BB62BB6A002B04D17C
S1130D404FF46B71364801F02BFCBB68002B08D1C3
S1130D50BB6A1B6C002B04D040F2AD31304801F06B
S1130D601FFC3B68022B08D1BB6ADB6B012B04D050
S1130D7040F2AE312A4801F013FCFFF70DFEEFF309
S1130D8011824FF0BF0383F31188BFF36F8FBFF35A
S1130D904F8FFA61BB61FB697B62BB6A9A6BBB6A6A
S1130DA0DB6B9A4202D33B68022B2CD1BB6A93F8CB
S1130DB0453087F823303A68B968B86A00F02EF9EC
S1130DC097F92330B3F1FF3F12D1BB6A5B6A002B62
S1130DD016D0BB6A2433184600F008FE0346002BE5
S1130DE00ED07B68002B0BD07B6801221A6007E0D1
S1130DF097F823300133DBB25AB2BB6A83F845203B
S1130E000123FB6201E00023FB627B6A7B617B6957
S1130E1083F31188FB6A18463037BD4680BD00BF96
S1130E207053000080B58AB000AFF860B9607A6092
S1130E303B6000237B62FB683B623B6A002B04D16E
S1130E4040F2E941734801F0ABFBBB68002B08D1C9
S1130E503B6A1B6C002B04D040F2EA416D4801F060
S1130E609FFB00F05BFF0346002B07D17B68002B40
S1130E7004D040F2ED41674801F092FBFFF7FAFC21
S1130E803B6A9B6BFB61FB69002B46D03B6ADB68CA
S1130E90BB61B968386A00F02BF93B68002B21D19B
S1130EA0FB695A1E3B6A9A633B6A1B68002B04D198
S1130EB001F044F802463B6A5A603B6A1B69002B06
S1130EC027D03B6A1033184600F090FD0346002BF0
S1130ED01FD0514B4FF080521A60BFF34F8FBFF3B6
S1130EE06F8F16E03B6ABA69DA603B6A5B6A002B73
S1130EF00FD03B6A2433184600F078FD0346002BDC
S1130F0007D0454B4FF080521A60BFF34F8FBFF3A9
S1130F106F8FFFF7D9FC012377E07B68002B03D1A7
S1130F20FFF7D2FC002370E07B6A002B06D107F1A7
S1130F301003184600F0B8FD01237B62FFF7C4FCE0
S1130F4000F048FBFFF796FC3B6A93F844305BB231
S1130F50B3F1FF3F03D13B6A002283F844203B6A8C
S1130F6093F845305BB2B3F1FF3F03D13B6A0022F3
S1130F7083F84520FFF7A8FC3A1D07F1100311463A
S1130F80184600F0AFFD0346002B31D1386A00F05B
S1130F9027F90346002B25D03B6A1B68002B08D198
S1130FA0FFF768FC3B6A5B68184600F0D5FEFFF764
S1130FB08BFC3B6A24337A681146184600F0CEFC59
S1130FC0386A00F0BBF800F013FB0346002B7FF4F3
S1130FD055AF114B4FF080521A60BFF34F8FBFF3E0
S1130FE06F8F4BE7386A00F0A9F800F001FB45E782
S1130FF0386A00F0A3F800F0FBFA386A00F0F0F861
S11310000346002B3FF43AAF002318462837BD4669
S113101080BD00BF7053000004ED00E080B586B0D1
S113102000AFF860B9607A6000237B61FB689B6B5A
S11310303B61FB681B6C002B0DD1FB681B68002B0C
S11310404DD1FB685B68184600F0FCFE7861FB68D4
S113105000225A6043E07B68002B19D1FB68986832
S1131060FB681B6C1A46B96803F016FAFB689A68A9
S1131070FB681B6C1A44FB689A60FB689A68FB68FF
S11310805B689A422BD3FB681A68FB689A6026E077
S1131090FB68D868FB681B6C1A46B96803F0FCF956
S11310A0FB68DA68FB681B6C5B421A44FB68DA6015
S11310B0FB68DA68FB681B689A4207D2FB685A68C7
S11310C0FB681B6C5B421A44FB68DA607B68022B8A
S11310D005D13B69002B02D03B69013B3B613B6975
S11310E05A1CFB689A637B6918461837BD4680BD55
S11310F080B582B000AF786039607B681B6C002BD0
S113110018D07B68DA687B681B6C1A447B68DA60E9
S11311107B68DA687B685B689A4203D37B681A68E9
S11311207B68DA607B68D9687B681B6C1A46386810
S113113003F0B2F900BF0837BD4680BD80B584B066
S113114000AF7860FFF796FB7B6893F84530FB733C
S113115011E07B685B6A002B12D07B68243318464D
S113116000F044FC0346002B01D000F011FDFB7B92
S1131170013BDBB2FB7397F90F30002BE9DC00E095
S113118000BF7B68FF2283F84520FFF79DFBFFF734
S113119071FB7B6893F84430BB7311E07B681B6977
S11311A0002B12D07B681033184600F01FFC034656
S11311B0002B01D000F0ECFCBB7B013BDBB2BB732A
S11311C097F90E30002BE9DC00E000BF7B68FF22BA
S11311D083F84420FFF778FB00BF1037BD4680BD7D
S11311E080B584B000AF7860FFF744FB7B689B6BED
S11311F0002B02D10123FB6001E00023FB60FFF719
S113120063FBFB6818461037BD4680BD80B584B0CB
S113121000AF7860FFF72EFB7B689A6B7B68DB6B13
S11312209A4202D10123FB6001E00023FB60FFF737
S11312304BFBFB6818461037BD4680BD80B485B0B3
S113124000AF786039600023FB6014E00E4AFB684D
S113125052F83330002B0BD10B49FB683A6841F844
S11312603320094AFB68DB0013447A685A6005E0BE
S1131270FB680133FB60FB68092BE7D900BF143717
S1131280BD4680BC704700BF1025002080B586B0E5
S113129000AFF860B9607A60FB687B61FFF7EAFA37
S11312A07B6993F844305BB2B3F1FF3F03D17B69B0
S11312B0002283F844207B6993F845305BB2B3F194
S11312C0FF3F03D17B69002283F84520FFF7FCFA36
S11312D07B699B6B002B06D17B6924337A68B968E0
S11312E0184600F05BFB7869FFF728FF00BF18374A
S11312F0BD4680BD80B58CB004AFF860B9603B607A
S11313001346FB80FB889B001846FFF7DFF87861E3
S11313107B69002B0ED05020FFF7D8F8F861FB69E9
S1131320002B03D0FB697A691A6305E07869FFF73B
S113133013F901E00023FB61FB69002B13D0FA8849
S113134000230393FB690293FB6A0193BB6A009336
S11313503B68B968F86800F00FF8F86900F088F89D
S11313600123BB6102E04FF0FF33BB61BB69184648
S11313702037BD4680BD000080B586B000AFF86060
S1131380B9607A603B60BB6A1A6B7B6803F1804387
S1131390013B9B0013443B613B6923F007033B6122
S11313A03B6903F00703002B04D04FF44E712F4820
S11313B001F0F6F800237B6112E0BA687B691344FC
S11313C01978BA6A7B69134434330A461A70BA68C6
S11313D07B6913441B78002B06D07B6901337B6146
S11313E07B69092BE9D900E000BFBB6A002283F8BE
S11313F03D203B6A022B01D902233B62BB6A3A6A55
S1131400DA62BB6A3A6A1A64BB6A00225A64BB6A2B
S113141004331846FFF7D1F8BB6A18331846FFF7B0
S1131420CCF8BB6ABA6A1A613B6AC3F10302BB6AAD
S11314309A61BB6ABA6A5A62BB6A00229A64BB6A3E
S1131440002283F84C203A68F9683869FFF746F9B6
S11314500246BB6A1A607B6A002B02D07B6ABA6AB6
S11314601A6000BF1837BD4680BD00BF8C53000012
S113147080B582B000AF7860FFF7FCF92A4B1B6897
S11314800133294A1360294B1B68002B09D1274AD1
S11314907B681360244B1B68012B10D100F08EFB7A
S11314A00DE0234B1B68002B09D1204B1B68DA6A23
S11314B07B68DB6A9A4202D81C4A7B6813601D4B26
S11314C01B6801331B4A13607B68DB6A01229A4064
S11314D0194B1B681343184A13607B68DA6A134676
S11314E09B0013449B00154A1A447B680433194635
S11314F01046FFF76EF8FFF7E7F90D4B1B68002B5A
S11315000ED00A4B1B68DA6A7B68DB6A9A4207D200
S11315100B4B4FF080521A60BFF34F8FBFF36F8FA6
S113152000BF0837BD4680BD80240020D0230020A2
S11315308C2400209C24002088240020D423002014
S113154004ED00E080B584B002AF1B4B019300238F
S1131550009300238C2219491948FFF7CBFE7860C9
S11315607B68012B02D100F063FD78607B68012B5E
S113157015D14FF0BF0383F31188BFF36F8FBFF30F
S11315804F8F3B600F4B4FF0FF321A600E4B01221E
S11315901A600E4B00221A60FFF70EF908E07B6810
S11315A0B3F1FF3F04D140F29171094800F0F8FF14
S11315B000BF0837BD4680BDA4240020A853000006
S11315C0A91B0000A02400208C24002084240020D7
S11315D08C53000080B400AF044B1B680133034AF2
S11315E0136000BFBD4680BC704700BFA824002024
S11315F080B584B000AF0023FB600023BB603E4B8A
S11316001B68002B04D140F2F5713C4800F0C8FF80
S1131610FFF730F9384B1B68013B374A1360364BF0
S11316201B68002B61D1364B1B68002B5DD02EE06C
S1131630344BDB68DB68FB60FB6818331846FFF744
S113164023F8FB6804331846FFF71EF8FB68DB6ACF
S113165001229A402C4B1B6813432B4A1360FB68EE
S1131660DA6A13469B0013449B00284A1A44FB6819
S1131670043319461046FEF7ACFFFB68DA6A244BC4
S11316801B68DB6A9A4202D3224B01221A601D4B6B
S11316901B68002BCCD1FB68002B01D000F01AFB97
S11316A01D4B1B687B607B68002B10D000F046F854
S11316B00346002B02D0174B01221A607B68013BC2
S11316C07B607B68002BF1D1134B00221A60114B15
S11316D01B68002B09D00123BB60104B4FF08052D4
S11316E01A60BFF34F8FBFF36F8FFFF7EDF8BB683E
S11316F018461037BD4680BDA82400208C53000036
S1131700802400204024002088240020D4230020AA
S1131710D0230020942400209024002004ED00E035
S113172080B483B000AF044B1B687B607B681846B1
S11317300C37BD4680BC70478424002080B586B039
S113174000AF00237B614E4B1B68002B40F0878069
S11317504C4B1B6801333B614A4A3B6913603B694C
S1131760002B1AD1484B1B681B68002B04D040F691
S1131770E611464800F014FF434B1B68FB60444BE2
S11317801B68414A1360424AFB681360414B1B6863
S11317900133404A136000F09DFA3F4B1B683A69DD
S11317A09A424DD3384B1B681B68002B01D101238F
S11317B000E00023002B04D0374B4FF0FF321A60B7
S11317C03EE0314B1B68DB68DB68BB60BB685B6871
S11317D07B603A697B689A4203D22F4A7B68136024
S11317E02EE0BB6804331846FEF74EFFBB689B6AC5
S11317F0002B04D0BB6818331846FEF745FFBB68BE
S1131800DB6A01229A40254B1B681343234A136069
S1131810BB68DA6A13469B0013449B00204A1A44AF
S1131820BB68043319461046FEF7D3FEBB68DA6A78
S11318301C4B1B68DB6A9A42B4D301237B61B1E77A
S1131840184B1B68DA6A164913469B0013449B0025
S11318500B441B68012B07D901237B6104E0124B65
S11318601B680133104A1360104B1B68002B01D016
S113187001237B617B6918461837BD4680BD00BFD4
S1131880A824002084240020382400208C53000045
S11318903C24002098240020A02400208824002038
S11318A0D4230020D023002090240020942400205E
S11318B080B584B000AF234B1B68002B03D0224BB0
S11318C001221A6039E0204B00221A601F4B1B686A
S11318D07B607B68B3FA83F3FB70FB78C3F11F036F
S11318E0FB601B49FA6813469B0013449B000B449E
S11318F01B68002B04D140F60331164800F050FE5B
S1131900FA6813469B0013449B00114A1344BB60BE
S1131910BB685B685A68BB685A60BB685A68BB6836
S113192008339A4204D1BB685B685A68BB685A6042
S1131930BB685B68DB68084A136000BF1037BD46AC
S113194080BD00BFA8240020942400208824002007
S1131950D42300208C530000D023002080B582B013
S113196000AF786039607B68002B04D140F61331F6
S1131970084800F015FE084B1B68183319467868B0
S1131980FEF74AFE0121386800F0ECFA00BF083780
S1131990BD4680BD8C530000D023002080B584B0A8
S11319A000AFF860B9607A60FB68002B04D140F6A0
S11319B03E310C4800F0F4FD0B4B1B6818331946FC
S11319C0F868FEF706FE7B68002B02D04FF0FF3369
S11319D0BB607968B86800F0C5FA00BF1037BD462F
S11319E080BD00BF8C530000D023002080B584B09C
S11319F000AF78607B68DB68DB68BB60BB68002B8A
S1131A0004D140F66E31214800F0CAFDBB6818339A
S1131A101846FEF739FE1E4B1B68002B1CD1BB6811
S1131A2004331846FEF730FEBB68DB6A01229A4095
S1131A30184B1B681343174A1360BB68DA6A1346D2
S1131A409B0013449B00144A1A44BB680433194690
S1131A501046FEF7BEFD05E0BB68183319460F4873
S1131A60FEF7B7FDBB68DA6A0D4B1B68DB6A9A4266
S1131A7005D90123FB600B4B01221A6001E000230E
S1131A80FB60FB6818461037BD4680BD8C530000D0
S1131A90A824002088240020D423002040240020EF
S1131AA0D02300209424002080B582B000AF786059
S1131AB07B68002B04D140F6CE31074800F070FD5E
S1131AC0064B1A687B681A60054B1A687B685A6073
S1131AD000BF0837BD4680BD8C5300009824002009
S1131AE08424002080B584B000AF786039607B68BE
S1131AF0002B04D140F6D831224800F051FD3B6858
S1131B00002B04D140F6D9311E4800F049FDFEF700
S1131B10B1FE1D4B1B68BB603B681B68B3F1FF3F04
S1131B2002D10023FB6026E07B681A68174B1B6810
S1131B309A4207D07B685B68BA689A4202D3012351
S1131B40FB6018E07B685B68BA68D21A3B681B6864
S1131B509A420ED23B681A687B685968BB68CB1AF4
S1131B601A443B681A607868FFF79EFF0023FB6005
S1131B7001E00123FB60FEF7A7FEFB68184610375F
S1131B80BD4680BD8C53000084240020982400208E
S1131B9080B400AF034B01221A6000BFBD4680BC75
S1131BA0704700BF9424002080B582B000AF7860F5
S1131BB000F044F802F04CF9FAE7000080B582B076
S1131BC000AF00237B600CE07A6813469B0013444B
S1131BD09B00124A13441846FEF7D0FC7B6801337D
S1131BE07B607B68022BEFD90D48FEF7C7FC0D48DC
S1131BF0FEF7C4FC0C48FEF7C1FC0C48FEF7BEFC23
S1131C000B48FEF7BBFC0B4B054A1A600A4B054A0E
S1131C101A6000BF0837BD4680BD00BFD423002032
S1131C2010240020242400204024002054240020D8
S1131C306C240020382400203C24002080B582B08D
S1131C4000AF28E0FFF7C6FC174B1B68002B0CBF46
S1131C5001230023DBB27B60FFF7CAFC7B68002B07
S1131C6019D1FEF707FE104BDB68DB683B603B686D
S1131C7004331846FEF708FD0C4B1B68013B0B4A66
S1131C8013600B4B1B68013B094A1360FEF71CFEF3
S1131C90386800F00FF8064B1B68002BD2D100BF48
S1131CA00837BD4680BD00BF542400208024002096
S1131CB06824002080B582B000AF78607B681B6B1D
S1131CC01846FEF749FC7868FEF746FC00BF083763
S1131CD0BD4680BD80B483B000AF0E4B1B681B684B
S1131CE0002B01D1012300E00023002B04D00A4B78
S1131CF04FF0FF321A6008E0064B1B68DB68DB68B4
S1131D007B607B685B68044A136000BF0C37BD4688
S1131D1080BC704738240020A024002080B483B005
S1131D2000AF0B4B1B68002B02D101237B6008E042
S1131D30084B1B68002B02D102237B6001E00023C7
S1131D407B607B6818460C37BD4680BC704700BF7B
S1131D508C240020A824002080B584B000AF7860D3
S1131D607B68FB607B68002B62D0FB68DA6A324BCD
S1131D701B68DB6A9A425BD2FB689B69002B06DB1B
S1131D802D4B1B68DB6AC3F10302FB689A61FB6895
S1131D905969FB68DA6A13469B0013449B00274A7F
S1131DA01344994201D1012300E00023002B3AD0CF
S1131DB0FB6804331846FEF767FC0346002B15D175
S1131DC0FB68DA6A1D4913469B0013449B000B44CD
S1131DD01B68002B0AD1FB68DB6A012202FA03F3B9
S1131DE0DA43174B1B681340154A1360124B1B68E8
S1131DF0DA6AFB68DA62FB68DB6A01229A40104BFC
S1131E001B6813430E4A1360FB68DA6A13469B008F
S1131E1013449B00094A1A44FB68043319461046CC
S1131E20FEF7D7FB04E0044B1B68DA6AFB68DA624E
S1131E3000BF1037BD4680BDD0230020D42300202E
S1131E408824002080B584B000AF78607B68BB60D4
S1131E500023FB607B68002B62D0344B1B68BA689C
S1131E609A4204D040F6D461314800F099FBBB6833
S1131E705B6C002B04D140F6D6612D4800F090FB3A
S1131E80BB685B6C5A1EBB685A64BB68DA6ABB6881
S1131E901B6C9A4244D0BB685B6C002B40D1BB687E
S1131EA004331846FEF7F0FB0346002B15D1BB683C
S1131EB0DA6A204913469B0013449B000B441B68B9
S1131EC0002B0AD1BB68DB6A012202FA03F3DA436E
S1131ED0194B1B681340184A1360BB681A6CBB6823
S1131EE0DA62BB68DB6AC3F10302BB689A61BB6850
S1131EF0DB6A01229A40104B1B6813430E4A13609D
S1131F00BB68DA6A13469B0013449B00094A1A44CF
S1131F10BB68043319461046FEF75BFB0123FB60E4
S1131F20FB6818461037BD4680BD00BFD023002093
S1131F308C530000D42300208824002080B400AFF8
S1131F40074B1B68002B04D0054B1B685A6C0132ED
S1131F505A64034B1B681846BD4680BC704700BFDB
S1131F60D023002080B584B000AF78603960294B5D
S1131F701B68FB60284B1B6804331846FEF784FB80
S1131F800346002B0BD1244B1B68DB6A012202FAA7
S1131F9003F3DA43214B1B681340204A13607B6828
S1131FA0B3F1FF3F0AD13B68002B07D01A4B1B68E3
S1131FB0043319461A48FEF70CFB26E0FA687B68DE
S1131FC01344BB60144B1B68BA685A60BA68FB6858
S1131FD09A4209D2134B1A680F4B1B6804331946F3
S1131FE01046FEF719FB10E00F4B1A680A4B1B68EA
S1131FF0043319461046FEF70FFB0C4B1B68BA68F6
S11320009A4202D2094ABB68136000BF1037BD462A
S113201080BD00BF84240020D02300208824002019
S11320206C2400203C24002038240020A02400201C
S113203080B584B002AF00237B6000F07BFA0E4BC6
S11320401B68002B0AD00D4B01930223009300233D
S11320508C220B490B48FFF74DF978607B68002B05
S113206004D14FF4A071084800F09AFA7B6818462E
S11320700837BD4680BD00BFDC240020E0240020DA
S1132080B053000099210000B853000080B588B017
S113209000AFF860B9607A603B600023FB61FB68C5
S11320A0002B04D140F2B3111B4800F079FA1B4B0A
S11320B01B68002B2AD0BB683B617B687B61FB6893
S11320C0BB61BB68052B18DCFFF728FE0346022B17
S11320D009D1124B186807F110010023BA6AFEF700
S11320E049FDF86112E00D4B186807F11001002357
S11320F00022FEF73FFDF86108E0084B186807F17D
S1132100100100233A68FEF70FFEF861FB691846D8
S11321102037BD4680BD00BFB8530000DC2400203A
S113212080B586B002AF78603960194B1B68DB68F4
S1132130DB68FB60FB6804331846FEF7A5FAFB680E
S1132140DB69012B1CD1FB689A697B68D1187B6819
S11321503A68F86800F0C4F80346002B10D0002356
S1132160009300237A680021F868FFF78FFFB860B6
S1132170BB68002B04D140F21521064800F010FA88
S1132180FB685B6AF868984700BF1037BD4680BD9E
S1132190D4240020B853000080B584B000AF786028
S11321A007F10803184600F057F8F860BB681946B1
S11321B0F86800F003F800F0D5F8F1E780B584B0D2
S11321C000AF78603960FFF705FA07F10803184695
S11321D000F066F8F860BB68002B30D13B68002B38
S11321E00AD17A68FB689A4206D8FFF701FAF968BF
S11321F07868FFF795FF24E03B68002B08D0134B69
S11322001B681B68002B0CBF01230023DBB23B605F
S11322100F4B18687A68FB68D31A3A681946FFF7B7
S113222035F8FFF7E5F90346002B0AD1094B4FF0C7
S113223080521A60BFF34F8FBFF36F8F01E0FFF737
S1132240D7F900BF1037BD4680BD00BFD824002099
S1132250DC24002004ED00E080B485B000AF786099
S11322600E4B1B681B68002B0CBF01230023DBB241
S11322701A467B681A607B681B68002B05D1074BE4
S11322801B68DB681B68FB6001E00023FB60FB68E4
S113229018461437BD4680BC704700BFD4240020C4
S11322A080B584B000AF7860FFF73AFAF8600B4B62
S11322B01B68FA689A4205D200F0DEF87B680122B6
S11322C01A6002E07B6800221A60044AFB6813600B
S11322D0FB6818461037BD4680BD00BFE4240020CB
S11322E080B586B000AFF860B9607A603B600023C7
S11322F07B61FB68BA685A60FB68FA681A61BA685D
S11323007B689A4212D87A683B68D21AFB689B6948
S11323109A4202D301237B611BE0104B1A68FB68CD
S1132320043319461046FEF777F912E07A683B68E1
S11323309A4206D2BA683B689A4202D301237B616F
S113234007E0074B1A68FB68043319461046FEF78A
S113235063F97B6918461837BD4680BDD824002030
S1132360D424002080B58AB002AF71E0BB68002B92
S11323706DDB3B69FB61FB695B69002B04D0FB6986
S113238004331846FEF780F93B1D1846FFF788FF13
S1132390B861BB68092B5BD801A252F823F000BFD7
S11323A0C9230000C9230000C923000051240000F0
S11323B01B24000047240000C9230000C923000097
S11323C0512400001B240000FA68FB699B69D118A2
S11323D0FB68BA69F869FFF783FF0346002B37D01F
S11323E0FB695B6AF8699847FB69DB69012B2FD1AC
S11323F0FA68FB699B691A440023009300230021B7
S1132400F869FFF743FE78617B69002B20D140F225
S11324102E31174800F0C4F81AE0FA68FB699A6193
S1132420FB699B69002B04D140F24531104800F050
S1132430B7F8FB699A69BB69D118BB69BA69F869CD
S1132440FFF74EFF04E0F869FEF786F800E000BFEE
S1132450084B186807F1080100230022FEF7E2FC8C
S11324600346002B82D100BF2037BD4680BD00BF8C
S1132470B8530000DC24002080B588B002AF3FE0F0
S1132480294B1B68DB681B683B61274B1B68DB68B7
S1132490DB68FB60FB6804331846FEF7F5F8FB685D
S11324A05B6AF8689847FB68DB69012B28D1FB68F5
S11324B09B693A691344BB60BA683B699A420ED976
S11324C0FB68BA685A60FB68FA681A61164B1A68A6
S11324D0FB68043319461046FEF79EF810E000230B
S11324E0009300233A690021F868FFF7CFFD786074
S11324F07B68002B04D140F29F310C4800F050F867
S1132500094B1B681B68002BBAD1074B1B687B6106
S1132510074B1B68044A1360054A7B69136000BFBC
S11325201837BD4680BD00BFD4240020B853000036
S1132530D824002080B500AFFEF79CF9124B1B682D
S1132540002B1DD11148FEF719F81148FEF716F8B3
S1132550104B0E4A1A60104B0D4A1A6000220C21CF
S11325600A20FEF7B1FA0246074B1A60064B1B68B5
S1132570002B05D0044B1B6808491846FEF75EFE85
S1132580FEF7A2F900BF80BDDC240020AC240020AB
S1132590C0240020D4240020D8240020D8530000D4
S11325A080B483B000AF78603960FEE780B487B050
S11325B000AFF860B9607A60FB6803F10473DA0075
S11325C0BB6813449B007B617B697A681A6000BF17
S11325D01C37BD4680BC704780B483B000AF7860C0
S11325E0034A7B68136300BF0C37BD4680BC704749
S11325F00010084080B582B000AF0346FB71FB7940
S11326001A4600210348FFF7D1FF00BF0837BD4633
S113261080BD00BF3810084080B584B000AF78603A
S11326207B68002B03D07B68B3F5004F03D94621A8
S11326300748FFF7B5FF7B68B3FA83F3DBB2C3F156
S11326401F03FB60FB6818461037BD4680BD00BF02
S1132650E053000080B483B000AF78600F4B9B6BF5
S113266003F00103002B13D10C4B1B6803F44053FC
S1132670002B0DD0094B1B6803F00803082B07D06F
S113268000BF064BDA6B7B681340002BF9D100E0E6
S113269000BF0C37BD4680BC704700BF0010084027
S11326A080B584B000AF78607B68002B03D18721AC
S11326B03F48FFF775FF7B689B68002B03D07B685E
S11326C09B68802B03D989213948FFF769FF7B6810
S11326D0DB68062B03D98D213548FFF761FF7B6842
S11326E01B78002B0BD07B681B78012B03D17B68F4
S11326F05B78002B03D191212D48FFF751FF7B68B4
S11327009B88B3F5405F0CD17B689B88B3F5405F31
S113271003D17B689B7C002B03D095212448FFF7D1
S11327203FFF7B689B681846FFF776FFF8607B687D
S11327301B78002B02D00120FFF75CFF0120FFF77C
S113274089FF7B689A7C1B4B5A607B685B7843F0FB
S11327500803DBB21A467B689B789B0013437A68B4
S1132760527C12011A437B68DB685B011A43FB68E5
S11327701B0213437A68928813437A68127C92038B
S11327801343BB604FF0FF30FFF726FF094ABB68D5
S113279013607B681B78002B05D0012000F00CF837
S11327A00020FFF727FF00BF1037BD4680BD00BFE4
S11327B0E05300000010084080B582B000AF03462B
S11327C0FB71FB79012B05D10D4B1B6803F003034F
S11327D0002B07D1FB79002B04D04FF481710948F9
S11327E0FFF7DEFEFB7983F00103DBB21A46032117
S11327F00348FFF7DBFE00BF0837BD4680BD00BFBE
S113280000100840E053000080B582B000AF78604B
S113281039607B68002B04D04FF489710648FFF7B8
S1132820BFFE0220FFF716FF044A3B68D36000BFD7
S11328300837BD4680BD00BFE053000000100840CB
S113284080B582B000AF78607B68002B04D04FF471
S113285098710448FFF7A4FE034BDB681846083759
S1132860BD4680BDE05300000010084080B500AFB5
S1132870012203210448FFF799FE002203210248A4
S1132880FFF794FE00BF80BD0010084080B487B0FD
S113289000AFF860B9607A60FB6803F10473DA0092
S11328A0BB6813449B007B617B697A681A6000BF34
S11328B01C37BD4680BC704780B485B000AF7860DB
S11328C039607B6803F10473DA003B6813449B00AE
S11328D0FB60FB681B6818461437BD4680BC704714
S11328E080B584B000AF78607B68002B03D07B6830
S11328F0B3F5004F04D940F6A9210748FFF750FE6D
S11329007B68B3FA83F3DBB2C3F11F03FB60FB689C
S113291018461037BD4680BD5C54000080B400AF3B
S1132920034BDB6C1B0EDBB21846BD4680BC704704
S1132930B081E00F80B400AF034BDB6C1B0CDBB247
S11329401846BD4680BC7047B081E00F80B582B0A8
S113295000AFFFF7EFFF03464A2B04D0792B02D0D8
S1132960482B23D024E0174B1B699BB21B029BB25C
S113297003F47C53FB80134B9B691B091B0103F07D
S1132980F0039AB2FB881343FB800E4BDB691B09EF
S113299003F00F039AB2FB881343FB80FB88B3F563
S11329A0017F01D3084B09E0084B07E0074B05E022
S11329B040F659410648FFF7F3FD0023184608374F
S11329C0BD4680BDD0FF0FE000366E010048E8012F
S11329D0C054000080B584B000AF78600123FB6070
S11329E0FFF7B4FF02467B68934204D80023FB60E0
S11329F00023BB600BE0FFF7A9FF03465B007A6886
S1132A009A4202D80123BB6001E00223BB60FA684A
S1132A101E210848FFF73AFF064B5B6823F48072D7
S1132A20BB681B02034913434B6000BF1037BD460C
S1132A3080BD00BF00800C4080B582B000AF1E2175
S1132A400448FFF739FF78607B6818460837BD46AD
S1132A5080BD00BF00800C4080B582B000AF244B25
S1132A605B6903F4E063B3F5007F1CD0B3F5007F2A
S1132A7005D8002B25D0B3F5807F1FD02AE0B3F50D
S1132A80C06F24D0B3F5E06F1ED0B3F5407F21D1E1
S1132A90FFF744FF0346122B02D9164B7B6021E05B
S1132AA0154B7B601EE0FFF739FF0346122B02D95A
S1132AB0124B7B6016E0124B7B6013E0114B7B6082
S1132AC010E0114B7B600DE0104B7B600AE0104B73
S1132AD07B6007E000237B6040F6D8410D48FFF798
S1132AE05FFD00BF7B6818460837BD4680BD00BF48
S1132AF000800C40804F120040420F0040B564003B
S1132B00C0CF6A00C0D8A700809FD500406F4001A5
S1132B10003FAB01C054000080B582B000AF0F4845
S1132B2000F046FA0346FB70FB78072B05D0092B0F
S1132B3007D1FDF723FC78600BE0FFF78DFF786089
S1132B4007E000237B6040F612510548FFF728FD9B
S1132B5000BF7B6818460837BD4680BD06000E00DE
S1132B60C054000090B585B000AF78600023BB600E
S1132B707B683B4A934208D03A4A934205D04FF4CB
S1132B8075613948FFF70CFD00E000BF786800F07C
S1132B900FFA0346FB607B68314A934203D0314A03
S1132BA0934206D00CE0314B9B6A03F00303FB60B5
S1132BB00CE02E4B9B6A9B0803F00303FB6005E0CB
S1132BC040F67F712848FFF7EBFC00BFFB68032B3E
S1132BD038D801A252F823F00F2C0000E92B000092
S1132BE0F12B0000F92B0000FDF756FCB86032E031
S1132BF0FDF762FCB8602EE0FDF7A6FB0446FFF784
S1132C001BFF0346013324FA03F3BB6023E00023D4
S1132C10BB607B68124A934203D07B68114A93429B
S1132C2018D1124B9A6A7B680D498B4201D110234B
S1132C3000E0142322FA03F3002B0BD0FDF734FC3D
S1132C40B86007E00023BB6040F6AA710648FFF7AE
S1132C50A7FC00E000BFBB6818461437BD4690BD12
S1132C6002001E0003002000C054000000800C403D
S1132C7080B483B000AF7860094B5B6D03F001034F
S1132C80002B07D100BF064B1A6D7B681340002B45
S1132C90F9D100E000BF0C37BD4680BC704700BFCF
S1132CA000800C4080B582B000AF104800F080F97D
S1132CB00346FB70FB78032B07D0092B09D0022BAA
S1132CC00BD1FDF7F9FB78600AE0FDF7E5FB7860CE
S1132CD006E0FDF753FB786002E000237B6000BF51
S1132CE07B6818460837BD4680BD00BF0723260011
S1132CF080B586B000AF78600B46FB7000233B6163
S1132D007B681B0A03F00F03013B092B33D801A294
S1132D1052F823F0512D0000572D00003D2D0000E6
S1132D20772D0000772D00005D2D0000672D000039
S1132D30772D0000772D0000712D00001B4B7B6167
S1132D401B4800F043F803461846FFF743FE18E01B
S1132D50184B7B6115E0184B7B6112E0174B7B61CC
S1132D6001233B610DE0164B7B6110233B6108E0BE
S1132D70144B7B6105E041F2DB311348FFF710FC93
S1132D8010E07B681B0B03F01F03FB603B69002B07
S1132D9002D03869FFF76CFFFB781A46F968786946
S1132DA0FFF774FD1837BD4680BD00BF40800C405E
S1132DB00043020008800C4044800C4058800C40C2
S1132DC060800C4078800C40C054000090B585B001
S1132DD000AF78607B6803F47813B3F5D01F00F07C
S1132DE0AB80B3F5D01F1AD8B3F5602F00F0BF80C5
S1132DF0B3F5602F08D8B3F5003F3CD0B3F5802F6E
S1132E002DD0002B27D0BEE0B3F5901F3CD0B3F5F6
S1132E10B01F47D0B3F5801F00F0AD80B3E0B3F529
S1132E20181F00F0AC80B3F5181F0AD8B3F5F01FD3
S1132E3025D0B3F5001F7AD0B3F5E01F00F08980E8
S1132E40A1E0B3F5301F4ED0B3F5381F62D0B3F50F
S1132E50281F35D097E0FDF791FAF8609BE0FDF765
S1132E608DFAF8604E4B9B6803F00F03FA6822FA60
S1132E7003F3FB608FE0FDF767FAF8608BE04948E5
S1132E80FFF770FEF86086E04648FFF76BFEF860D7
S1132E90434B9B6E1B0903F00F03FA6822FA03F3FA
S1132EA0FB6078E03F48FFF75DFEF8603C4B9B6EAB
S1132EB01B0A03F00F03FA6822FA03F3FB606AE0CB
S1132EC03848FFF74FFEF860354B9B6E1B0B03F041
S1132ED003041020FFF704FD03462344FA6822FA92
S1132EE003F3FB6057E02F48FFF73CFEF8602C4BE0
S1132EF09B6E1B0B03F00303FA6822FA03F3FB60D7
S1132F00274BDB6F03F007030133FA68B2FBF3F3DB
S1132F10FB6040E02348FFF725FEF860204B9B6EE2
S1132F2003F00303FA6822FA03F3FB6033E01E485C
S1132F30FFF718FEF8602EE01B48FFF713FEF86059
S1132F40174B1B6F03F00303FA6822FA03F3FB60C9
S1132F5021E01548FFF706FEF860114B1B6F1B09B3
S1132F6003F00303FA6822FA03F3FB6013E0FFF7AC
S1132F70D3FDF8600FE0FFF76FFDF8600BE0FFF79B
S1132F8091FEF86007E00023FB6041F2015107481D
S1132F90FFF706FB00BFFB6818461437BD4690BD1B
S1132FA000800C4002001E0003002000C0540000FA
S1132FB080B584B000AF78600123FB737B6803F0B5
S1132FC00F03BB60BB68013B062B00F2938001A298
S1132FD052F823F0F12F0000273000006330000086
S1132FE0F5300000F53000009F300000C1300000D3
S1132FF0474BDB6A03F47053B3F5805F09D0B3F534
S1133000005F03D0B3F5006F06D008E00223FB7322
S113301008E00323FB7305E00423FB7302E00523AC
S1133020FB7300BF6EE03A4B9B6A03F00303022B71
S113303006D0032B07D0012B08D10323FB730FE029
S11330400223FB730CE00623FB7309E0304B9B6AFD
S113305003F48033002B02D00A23FB7300E000BF8B
S113306050E02B4B9B6A03F00C03082B06D00C2B6F
S113307007D0042B08D10323FB730FE00223FB7357
S11330800CE00623FB7309E0214B9B6A03F48013D5
S1133090002B02D00A23FB7300E000BF32E01C4B7C
S11330A01B6803F08053002B03D0B3F1805F03D07F
S11330B028E00723FB7302E00923FB7300BF21E030
S11330C0134BDB6A03F46033B3F5803F08D0B3F5E8
S11330D0003F08D0B3F5004F08D10923FB7308E083
S11330E00223FB7305E00323FB7302E00123FB735C
S11330F000BF07E00023FB7341F628110548FFF7E2
S11331004FFA00BFFB7B18461037BD4680BD00BF99
S113311000800C40C054000080B582B000AF03466C
S11331203960FB71FB79002B1FD0FB79012B19D07F
S1133130FB79022B13D0FB79032B0DD0FB79042BE5
S113314007D0FB79052B02D141F6FF730FE0002372
S11331500DE04FF6FF730AE04FF6FF7307E04FF6FA
S1133160FF7304E04FF6FF7301E04FF6FF733A6814
S1133170134103F00103002B04D14FF477710A4883
S1133180FFF70EFA01223B6802FA03F30749FA79C2
S113319018461346DB0013449B000B441433186099
S11331A000BF0837BD4680BDD45400000060004015
S11331B080B582B000AF03463960FB71FB79002B08
S11331C01FD0FB79012B19D0FB79022B13D0FB798B
S11331D0032B0DD0FB79042B07D0FB79052B02D1EF
S11331E041F6FF730FE000230DE04FF6FF730AE092
S11331F04FF6FF7307E04FF6FF7304E04FF6FF73DB
S113320001E04FF6FF733A68134103F00103002B0A
S113321004D140F20B410A48FFF7C2F901223B688E
S113322002FA03F30749FA7918461346DB001344FC
S11332309B000B441033186000BF0837BD4680BDA7
S1133240D45400000060004080B584B000AFB96081
S11332507B600346FB731346BB73FB7B002B1FD0C1
S1133260FB7B012B19D0FB7B022B13D0FB7B032BA5
S11332700DD0FB7B042B07D0FB7B052B02D141F641
S1133280FF730FE000230DE04FF6FF730AE04FF6E3
S1133290FF7307E04FF6FF7304E04FF6FF7301E09E
S11332A04FF6FF73BA68134103F00103002B04D1F6
S11332B040F21B113948FFF773F9BB7B002B0DD08B
S11332C07B68002B05D0FB7BB9681846FFF770FFBD
S11332D004E0FB7BB9681846FFF71EFFBB68072BA9
S11332E020D82F49FA7B1346DB0013449B000B4480
S11332F004331A68BB689B000F2101FA03F3DB4314
S11333001340B97BBA68920001FA02F211462448CC
S1133310FA7B19431346DB0013449B000344043334
S1133320196025E01E49FA7B1346DB0013449B0019
S11333300B4408331A68BB6803F18043083B9B00C5
S11333400F2101FA03F3DB4302EA0301BA7BBB68F2
S113335003F18043083B9B0002FA03F31048FA7B15
S113336019431346DB0013449B00034408331960DC
S1133370BB7B002B0DD17B68002B05D0FB7BB96890
S11333801846FFF715FF04E0FB7BB9681846FFF702
S1133390C3FE00BF1037BD4680BD00BF38550000D6
S11333A00060004080B483B000AF786039607B680F
S11333B03A681A6300BF0C37BD4680BC704780B4BE
S11333C087B000AFF860B9607A60FB6803F10473FA
S11333D0DA00BB6813449B007B617B697A681A60DE
S11333E000BF1C37BD4680BC704780B485B000AFB9
S11333F0F860B9607A60FB681A68BB68DB431A40FE
S11334007B681A43FB681A6000BF1437BD4680BC52
S1133410704780B483B000AF786001E07B68DB69FB
S11334207B68DB6803F48073002BF7D100BF0C3793
S1133430BD4680BC7047000080B588B000AFF8601E
S1133440B9607A60FB707B68002B04D14FF48A71F9
S11334505448FFF7A5F87B68002B00F09E80FB78AA
S113346003F00303FB70FB681B6823F44072FB68E2
S11334701A60F868FB781B021A464FF44071FFF794
S1133480B4FFBB68002B16D1FB68474A934204D1B2
S11334904648FFF79BFCB8600DE0FB68444A934242
S11334A004D14448FFF792FCB86004E04FF49771EC
S11334B03C48FFF775F84FF0FF33FB61FB681B686E
S11334C003F00203002B10D0FB78012B07D0022B52
S11334D008D0002B00D019E0374BFB6116E0374BC6
S11334E0FB6113E0364BFB6110E0FB78012B07D046
S11334F0022B08D0002B00D008E0324BFB6105E022
S1133500314BFB6102E0314BFB6100BFBA68FB69E0
S11335109A4204D840F263112248FFF741F8FB783D
S11335202B4AD35C7B617B697A6802FB03F33B61C2
S11335303B69002B05D14FF4BA711A48FFF730F8F4
S11335402CE07B689B00BA68D21A3B6913445A1E6C
S11335503B69B2FBF3F3013BBB61BB69002B04DAAB
S11335604FF4BD710F48FFF71BF8BB69B3F5007F3B
S113357004D340F27B110B48FFF712F8FB681B6879
S113358003F00203002B04D0BB69002B01D10123FB
S1133590BB61BA69FB681A6100E000BF2037BD4611
S11335A080BD00BF5055000000A0004000B20400E0
S11335B000A4004000C2040040164000C0D8A70088
S11335C08050740180841E0040548900002D310114
S11335D04C55000080B582B000AF78600B46FB709C
S11335E07B680B4A934208D07B680A4A934204D012
S11335F04FF4CA710848FEF7D3FF7B68FA780021BC
S11336001846FFF7DCFE00BF0837BD4680BD00BF8B
S113361000A0004000A400405055000080B582B0D6
S113362000AF786039607B68174A934208D07B68A2
S1133630164A934204D040F2A9111548FEF7B0FF90
S11336407B6800225A6313497868FFF7ABFE7868F9
S11336503B685B7883F00103DBB21A460121FFF774
S1133660AEFE3B6859683B689A683B681B7B786888
S1133670FFF7E2FE3B681B7819467868FFF7AAFF5C
S113368000BF0837BD4680BD00A0004000A4004034
S113369050550000FFFF010080B588B000AF78608E
S11336A07B68A24A934208D07B68A14A934204D023
S11336B040F2FF119F48FEF773FF7B689B4A9342D9
S11336C002D19D4BBB6109E07B68994A934202D1C8
S11336D09A4BBB6102E06FF0030314E2BB699B6881
S11336E07B617B689B6A3B613B6903F4C063002B8D
S11336F014D03B6903F40073002B03D0BB69FD2293
S11337005A7007E03B6903F48063002B02D0BB6965
S1133710FE225A70BB6909221A70DFE1BB691B786B
S1133720082B00F2C78101A252F823F051370000A0
S1133730A33700002F38000085380000D738000078
S113374041390000C9390000093A0000993A0000E3
S11337507B695B8803F01003002B09D07B691B880D
S11337601B0A9BB203F0060343F0F003FB610EE077
S11337707B691B8803F0FE03FB617B695B8803F0B4
S11337800203002B03D0FB6943F00103FB61BB6917
S113379001221A707B68FA695A627B6801225A60B6
S11337A09CE13B6903F08003002B0DD080217868F5
S11337B0FFF7F8FDBB69FF225A70BB6908221A7033
S11337C07B6802225A607EE13B6903F04003002BD0
S11337D000F0798140217868FFF7E4FD7B695B881C
S11337E003F01003002B08D0BB6902221A707B6916
S11337F01B88DAB27B685A6265E17B695B8803F0F7
S11338000203002B0FD0BB6907221A70BB691B7916
S11338107A69DB0013441B89012B40F054817B68D7
S113382008225A604FE1BB6905221A704AE13B69DC
S113383003F08003002B0DD080217868FFF7B2FDE0
S1133840BB69FF225A70BB6908221A707B68022286
S11338505A603AE13B6903F04003002B00F03581E4
S113386040217868FFF79EFD7B695B8803F00203C3
S1133870002B03D0BB6903221A7023E1BB69052224
S11338801A701FE17B695B8803F01003002B09D0D9
S11338907B691B881B0A9BB203F0060343F0F00309
S11338A0FB6104E07B691B8803F0FE03FB617B6919
S11338B05B8803F00403002B03D0FB6943F001038E
S11338C0FB61BB6904221A707B6801225A607B6821
S11338D0FA695A6202E13B6903F08003002B0DD0C0
S11338E080217868FFF75EFDBB69FF225A70BB69CF
S11338F008221A707B6802225A60E8E03B6903F0F0
S11339004003002B00F0E38040217868FFF74AFD74
S11339107B695B8803F00403002B03D0BB69072297
S11339201A70D4E0BB6905221A70CBE000A00040F5
S113393000A4004050550000E8240020F424002096
S1133940BB695A88BB691B797969DB000B441B8905
S11339509A4224D3BB6900225A80BB691B79013384
S1133960DAB2BB691A717B695B8803F00403002B2C
S113397003D0BB6903221A70A4E07B695B8803F05F
S11339800103002B04D1BB691B79012B40F2998000
S1133990BB6908221A707B6802225A609EE0BB69E8
S11339A01B797A69DB0013445A68BB695B88591C2C
S11339B088B2B969488013441B781A467B685A62F6
S11339C0BB6906221A7089E03B6903F08003002B6F
S11339D00DD080217868FFF7E5FCBB69FF225A709F
S11339E0BB6908221A707B6802225A6071E03B6945
S11339F003F04003002B6CD040217868FFF7D2FC21
S1133A00BB6905221A705DE03B6903F02003002BBB
S1133A1061D0BB691B797A69DB0013441B89FB60A5
S1133A207B68DB69FB72BB695B881A46FB6893425F
S1133A300ED9BB691B797A69DB0013445A68BB69E8
S1133A405B88591C88B2B96948801344FA7A1A70A1
S1133A50BB695B881A46FB6893420CD8FB68012B50
S1133A6002D17B6808225A60BB6908221A707B68FD
S1133A7002225A602FE07B6804225A60FB68012B03
S1133A8029D9BB695B881A46FB68013B9A4222D15B
S1133A907B6808225A601EE03B6903F48073002BA4
S1133AA01BD04FF480717868FFF77CFCBB69092256
S1133AB01A7012E0BB69FB225A70BB6909221A70A2
S1133AC00CE000BF0DE600BF08E000BF06E000BF49
S1133AD004E000BF02E000BF00E000BFBB691B7848
S1133AE0092B0BD17B6800225A63BB6993F901301F
S1133AF0012B05D1BB6900225A7001E0012302E0C9
S1133B00BB6993F9013018462037BD4680BD00BF1C
S1133B1080B584B000AF786039607B68354A9342E1
S1133B2008D07B68344A934204D040F24B31334886
S1133B30FEF736FD3B68002B04D14FF453712F4838
S1133B40FEF72EFD7B682B4A934202D12C4BFB607F
S1133B5009E07B68284A934202D12A4BFB6002E0C9
S1133B606FF0030342E07B689B6803F00103002BC2
S1133B7002D07B6820225A603B685B8803F0020312
S1133B80002B03D03B681B89002B09D03B685B8862
S1133B9003F00403002B06D03B681B8A002B02D1E0
S1133BA06FF0030322E0FB6800221A70FB68012215
S1133BB05A70FB6800225A80FB6800221A71FB6865
S1133BC03A689A607B68C0225A607868FFF721FCE3
S1133BD00D497868FFF7E6FB7B685B6B43F4FC6296
S1133BE07B685A637868FFF757FD03461846103719
S1133BF0BD4680BD00A0004000A400405055000018
S1133C00E8240020F4240020FFFF010080B485B0E4
S1133C1000AF78607B68FB60FB6893FAA3F3BB603A
S1133C20BB68B3FA83F3DBB218461437BD4680BCD5
S1133C30704780B487B000AFF860B9607A60FB6801
S1133C4003F10473DA00BB6813449B007B617B6956
S1133C507A681A6000BF1C37BD4680BC70470000FC
S1133C6080B584B000AF03460A46FB711346BB71AE
S1133C70FB791846FFF7CAFFF860BB79002B14BF25
S1133C8001230023DBB21A46F9680348FFF7D1FF8A
S1133C9000BF1037BD4680BD00A00C4080B584B085
S1133CA000AF78607B68002B03D146211B48FEF7E8
S1133CB077FC1B4B5B69DBB29B00DBB203F03C037C
S1133CC0FB73174B1B699B09DBB203F00303DAB2E6
S1133CD0FB7B1343FB737B68FA7B9A70104B1B6965
S1133CE0DBB203F03F03DAB27B685A700C4B9B697A
S1133CF01B09DBB21B01FB73094BDB691B09DBB23C
S1133D0003F00F03DAB2FB7B1343FB737B68FA7B8C
S1133D101A7000BF1037BD4680BD00BF6455000057
S1133D20D0FF0FE080B483B000AF0346FB7197F976
S1133D300730002B0BDBFB7903F01F02064997F9D0
S1133D4007305B09012000FA02F241F8232000BF8A
S1133D500C37BD4680BC704700E100E080B483B0FE
S1133D6000AF0346FB7197F90730002B0CDBFB799E
S1133D7003F01F02074997F907305B09012000FA95
S1133D8002F2603341F8232000BF0C37BD4680BCEB
S1133D90704700BF00E100E080B483B000AF034689
S1133DA03960FB7197F90730002B0ADB3B68DAB204
S1133DB00C4997F907305201D2B20B4483F800231F
S1133DC00AE03B68DAB20849FB7903F00F03043BCD
S1133DD05201D2B20B441A7600BF0C37BD4680BCE8
S1133DE0704700BF00E100E000ED00E080B483B064
S1133DF000AF7860034A7B68136300BF0C37BD468D
S1133E0080BC70470010084080B483B000AF786075
S1133E10054B5A6B7B68DB43034913404B6300BF7C
S1133E200C37BD4680BC70470010084080B483B096
S1133E3000AF7860054B5A6B04497B6813434B63AE
S1133E4000BF0C37BD4680BC704700BF001008405F
S1133E5080B400AF00BFBD4680BC704780B584B05D
S1133E6000AF0020FEF7ECFC024632239A420AD04F
S1133E700020FEF7A1FC322319460020FEF7C4FC03
S1133E800120FEF799FC0720FFF7B0FFEFF3118242
S1133E904FF0BF0383F31188BFF36F8FBFF34F8FCE
S1133EA0BA607B60FDF74AFCF860FB68002B07D022
S1133EB0084B4FF080521A60BFF34F8FBFF36F8FE0
S1133EC000233B603B6883F3118800BF1037BD4675
S1133ED080BD00BF04ED00E0B0B586B000AF1D4B5F
S1133EE03C1D1D460FCD0FC42B68236001211A48C9
S1133EF0FEF7FEFE00210220FFF7B2FE02237B71D3
S1133F004FF440533B810123FB6001237B753B1D30
S1133F101846FEF7C5FB0220FFF776FFFF211F209E
S1133F20FFF73AFF1F20FFF719FF1F20FFF7FAFEE4
S1133F30322319460020FEF767FC0220FFF756FFE4
S1133F400220FFF773FFFEF791FC00BF1837BD4650
S1133F50B0BD00BF7C5500000043020080B400AF38
S1133F60034BDB6C1B0EDBB21846BD4680BC7047AE
S1133F70B081E00F80B582B000AF0E4B01221A640D
S1133F80FFF7ECFF0346FB713B1D1846FFF786FE67
S1133F90FB790F2B0AD93B79022B07D9064B1B68F7
S1133FA023F05003044A43F01003136000BF0837A2
S1133FB0BD4680BD00000C40C0800C4080B584B07C
S1133FC000AF78607B68FB60FB68186807F10A0142
S1133FD000234FF0FF32FCF725FF0346012BF3D1FA
S1133FE0B7F90A301946024800F06AFAECE700BF54
S1133FF09055000080B584B000AF78607B68FB60AA
S1134000D7224021202000F035F9D722402110206A
S113401000F030F90023FB720023BB7207F10A039E
S1134020D7221946282000F077F907F10B03D7228D
S11340301946292000F070F9FB7A1B021AB2BB7AE8
S11340401BB213431BB23B81FB68186807F10801DC
S113405000230022FCF78EFD07F10A03D72219463C
S1134060182000F059F907F10B03D722194619203B
S113407000F052F9FB7A1B021AB2BB7A1BB213434B
S11340801BB23B8107F10A033D221946282000F0A8
S113409043F907F10B033D221946292000F03CF9AE
S11340A0FB7A1B021AB2BB7A1BB213431BB23B81CD
S11340B0B4E7000080B584B002AFFFF75BFFFCF704
S11340C093F8FCF765F800F07DF878607968164895
S11340D000F0F6F900F092F83D21D72000F06EF9D7
S11340E0002202210A20FCF7EFFC38600F4A3B68EB
S11340F0136000230193012300930C4B96220C4977
S11341000C48FDF7F7F80023019301230093074BB4
S1134110962209490948FDF7EDF8FDF713FA002343
S113412018460837BD4680BDA05500000025002074
S1134130B4550000F53F0000C0550000BD3F00002D
S113414080B483B000AF78604FF06043D3F8803E12
S113415003F00103002B13D04FF06043D3F8003E6B
S113416003F00103002B0BD000E000BF4FF06043CD
S11341701B68002BF9D04FF060437A68D2B21A70F2
S11341807B6818460C37BD4680BC704780B586B046
S113419000AFF860B9607A6000237B6109E0BB6816
S11341A05A1CBA601B781846FFF7CAFF7B690133B3
S11341B07B617A697B689A42F1DB7B681846183721
S11341C0BD4680BD80B500AF032200210120FCF76D
S11341D07BFC0246084B1A60074B18680023002238
S11341E00021FCF7C7FC044B1B68002B14BF012300
S11341F00023DBB2184680BD6025002090B585B051
S113420000AF184B186800234FF0FF320021FCF771
S113421009FE154B3C460FCB84E80F0001211348DF
S1134220FEF766FD0123082204210220FFF70CF8A3
S11342300123082205210220FFF706F80C4B032274
S11342409A633B4619460A48FFF7E8F9054B186894
S1134250002300220021FCF78DFC00BF1437BD466B
S113426090BD00BF60250020D055000000C20400AE
S113427000A4004080B58AB000AF0346FB710B4632
S1134280BB7113467B71224B186800234FF0FF3239
S11342900021FCF7C7FD002387F826307B799BB209
S11342A03B8201237B82FB793B73BB797B7307F1F0
S11342B00C037B6102233B8307F110031946154865
S11342C0FFF726FC034687F8273005E01148FFF77F
S11342D0E3F9034687F8273097F92730012BF5D007
S11342E097F92730002B03D0002387F8263002E00B
S11342F0012387F82630064B18680023002200218A
S1134300FCF738FC97F8263018462837BD4680BDA0
S11343106025002000A4004080B58AB000AF0346A9
S11343203960FB711346BB71224B186800234FF0B0
S1134330FF320021FCF776FDBB799BB23B8204235C
S11343407B82FB1D7B6101233B8307F10C03FB6133
S113435001233B8407F1100319461748FFF7D8FBE4
S1134360034687F8273005E01348FFF795F903461D
S113437087F8273097F92730012BF5D097F92730A4
S1134380002B08D00B4B1868002300220021FCF7F7
S1134390F1FB00230AE03A7B3B681A70054B18686E
S11343A0002300220021FCF7E5FB012318462837EF
S11343B0BD4680BD6025002000A4004080B584B0C7
S11343C000AF03460A46FB711346BB71FA7907F145
S11343D00F0319460F20FFF79FFFBA7907F10E0369
S11343E019460F20FFF798FFFB7B682219460C48FB
S11343F000F066F8BB7B3D2219460A4800F060F8DD
S1134400FB7B682B04D1BB7B3D2B01D1012300E056
S1134410002303F00103DBB218461037BD4680BD0C
S1134420E05500000856000008B5074B044613B1D8
S11344300021AFF30080054B1868836A03B19847E5
S1134440204600F05FFF00BF00000000345600006B
S113445070B500250C4E0D4CA41BA410A54209D127
S113446000F052FF00250A4E0A4CA41BA410A542DA
S113447005D170BD56F8253098470135EEE756F85A
S1134480253098470135F2E77400002074000020BD
S1134490740000207800002010B5431E0A449142A5
S11344A000D110BD11F8014B03F8014FF7E70346A3
S11344B00244934200D1704703F8011BF9E700005E
S11344C00FB40A4B13B51C6824B1A36913B9204671
S11344D000F04EF805AB049AA1682046019300F061
S11344E053F902B0BDE8104004B07047100000203A
S11344F0002310B50446C0E900338360818143661C
S1134500C281C0E904338361194608225C30FFF795
S1134510CEFF054B24626362044BA362044BE36247
S1134520044B236310BD00BFE14C0000034D0000A9
S11345303B4D00005F4D0000014900F085B800BF0D
S11345403950000070B568254A1E55430E4605F1E2
S1134550740100F097F8044640B10021C0E9001648
S11345600C30A06005F16802FFF7A1FF204670BD82
S1134570836910B5044633BBC0E912330365124B9B
S1134580124A1B688262984204BF0123836100F0CF
S11345901FF86060204600F01BF8A060204600F081
S11345A017F80022E06004216068FFF7A1FF0122F0
S11345B00921A068FFF79CFF02221221E068FFF79F
S11345C097FF0123A36110BD345600003945000054
S11345D0F8B51B4B07461E68B36913B93046FFF79D
S11345E0C7FF4836D6E90134013B03D5336833B1FC
S11345F03668F7E7B4F90C506DB16834F4E7042178
S11346003846FFF79FFF30600028F1D10C230446A1
S11346103B602046F8BD0B4B6566C4E90055A560B8
S1134620C4E90335C4E905550822294604F15C00B0
S1134630FFF73DFFC4E90D55C4E91255E9E700BF92
S1134640345600000100FFFF2DE9F84380468946F7
S1134650002600F1480414B93046BDE8F883D4E9D3
S11346600175013F01D52468F5E7AB89012B07D912
S1134670B5F90E30013303D029464046C8470643F6
S11346806835EEE770B5CD1C25F0030508350C2D13
S113469038BF0C25002D064601DBA94203D90C23A3
S11346A03360002070BD00F075FD214A1468214676
S11346B091B9204C23681BB9304600F001FB2060FF
S11346C02946304600F0FCFA431C24D10C23304622
S11346D0336000F060FDE4E70B685B1B18D40B2B20
S11346E00FD90B60CC18CD50304600F054FD04F1C6
S11346F00B00231D20F00700C31AD3D05A42E25006
S1134700D0E74B688C4216BF636013600C46EBE73E
S11347100C464968CCE7C41C24F00304A04205D02D
S1134720211A304600F0CCFA0130CFD02560DBE707
S11347300425002008250020936810B4013B002BB9
S1134740936007DA9469A34201DB0A2902D110BC01
S113475000F00ABB1368581C10601970084610BC9E
S11347607047F8B506460F461446D518AC4201D139
S1134770002007E03A4614F8011B3046FFF7DCFF3F
S1134780431CF3D1F8BD00002DE9F04F9DB00C4659
S113479017460393064618B183690BB9FFF7E8FE81
S11347A07B4B9C4257D17468A38918075DD5236954
S11347B0002B5AD00023099320238DF8293030236D
S11347C04FF0010B8DF82A30B846454615F8013BE9
S11347D00BB1252B54D1B8EB070A0BD053463A46FC
S11347E021463046FFF7BDFF013000F0C280099B2F
S11347F05344099398F80030002B00F0BA8000234A
S11348004FF0FF32CDE90523049307938DF853301D
S11348101A93A846052218F8011B5E4800F0ACFC68
S1134820049B78BBD90644BF20228DF853201A0775
S113483044BF2B228DF853202A782A2A2AD0A8464E
S113484000200A25079A414611F8013B303B092B09
S113485069D960B324E0504B9C4201D1B468A3E70A
S11348604E4B9C4208BFF4689EE72146304600F058
S1134870DFFA00289ED04FF0FF301DB0BDE8F08F66
S1134880A846A2E7434A4546801A0BFA00F01843AB
S11348900490BEE7039A111D12680391002A01DBFC
S11348A0079204E0524243F002030792049398F8FB
S11348B000302E2B0ED198F801302A2B38D1039BCF
S11348C008F102081A1D1B680392002BB8BF4FF0B1
S11348D0FF330593324D032298F80010284600F068
S11348E04BFC40B14023401B03FA00F0049B08F149
S11348F001080343049398F800100622294808F19C
S113490001078DF8281000F037FC002837D0264B1B
S11349101BBB039B073323F0070308330393099B53
S11349204B44099350E705FB0232012088468AE78D
S113493000230A25194608F101080593404610F89A
S1134940012B303A092A03D9002BC3D00591C1E7C2
S113495005FB012101238046F0E703AB00932246C7
S1134960124B04A93046AFF30080B0F1FF3F8146FB
S1134970D5D1A3895B063FF57EAF09987DE703ABEC
S113498000932246094B04A9304600F087F8ECE76F
S1134990585600009856000078560000385600001B
S11349A09E560000A256000000000000634700006D
S11349B02DE9F04791461F468A680B6906469342E3
S11349C0B8BF1346C9F8003091F843200C46DDF80F
S11349D0208012B10133C9F800302368990642BF20
S11349E0D9F800300233C9F80030256815F00605FF
S11349F007D104F1190AE368D9F800209B1AAB42E5
S1134A0029DC94F843302268003318BF012392064E
S1134A102ED404F1430239463046C047013021D038
S1134A202368E56803F00603042B18BF0025D9F8B2
S1134A3000204FF0000908BFAD1AA368226908BF1F
S1134A4025EAE5759342C4BF9B1AED181A344D4507
S1134A501AD1002008E00123524639463046C047A7
S1134A60013003D14FF0FF30BDE8F0870135C2E7D4
S1134A703020E11881F843005A1C94F84510224470
S1134A80023382F84310C4E70123224639463046F4
S1134A90C0470130E6D009F10109D8E72DE9F04318
S1134AA001F1430C0C46097E85B06E291746064673
S1134AB098460C9A00F0B38022D8632936D00AD8DD
S1134AC0002900F0B980582900F0838004F14205E0
S1134AD084F8421032E0642901D06929F6D12068B3
S1134AE01368050603F104012AD51B681160002B25
S1134AF003DA2D225B4284F843206F480A2239E00E
S1134B00732900F09D8008D86F2920D07029DDD149
S1134B10236843F02003236003E0752917D0782924
S1134B20D4D17823654884F8453055E0136804F1FE
S1134B304205191D1B68116084F8423001238CE082
S1134B401B6810F0400F116018BF1BB2CFE7136849
S1134B502568181D1060280601D51B6802E0680648
S1134B60FBD51B886F2914BF0A2208225248002152
S1134B7084F843106568002DA560C0F29580216813
S1134B8021F004012160002B3DD1002D40F08E80E6
S1134B906546082A0BD12368DB0708D523696268B8
S1134BA09A42DEBF302305F8013C05F1FF35ACEB3A
S1134BB005032361CDF800803B4603AA2146304615
S1134BC0FFF7F6FE01304DD14FF0FF3005B0BDE8E0
S1134BD0F083394884F84510136821681D1D1B684B
S1134BE015600A060BD5CA0744BF41F020012160B5
S1134BF01BB9226822F0200222601022B7E74D067A
S1134C0048BF9BB2EFE76546B3FBF2F102FB1133F9
S1134C10C35C05F8013D0B460029F5D1B9E71368DB
S1134C202568181D6169106028061B6801D5196084
S1134C3002E06A06FBD51980002365462361B9E7C3
S1134C401368191D11601D6862680021284600F070
S1134C5093FA08B1401B606063682361002384F801
S1134C604330A7E723692A4639463046C047013016
S1134C70AAD023689B0713D4E068039B9842B8BF6B
S1134C801846A3E701234A4639463046C047013057
S1134C909AD00135E368039A9B1AAB42F2DCEBE746
S1134CA0002504F11909F5E7002BACD1037804F1D0
S1134CB0420584F842306CE7A9560000BA56000059
S1134CC038B50023054C05460846236000F00CFB6C
S1134CD0431C02D1236803B12B6038BD6425002036
S1134CE010B50C46B1F90E1000F0A2FA0028ABBFC3
S1134CF0636DA3891B1823F48053ACBF6365A38140
S1134D0010BD2DE9F0411F468B890546DB050C4695
S1134D10164605D502230022B1F90E1000F0B6F9AB
S1134D20A389324623F48053A381B4F90E103B4681
S1134D302846BDE8F04100F069B810B50C46B1F959
S1134D400E1000F0A3F9431CA38915BF606523F47A
S1134D50805343F48053A38118BFA38110BDB1F9DC
S1134D600E1000F0D3B80000F8B50E461446054600
S1134D7018B183690BB9FFF7FBFB214B9C422AD185
S1134D806C68A369A360A3891A072ED5236963B34A
S1134D9023692068F6B2C01A63693746834204DC8B
S1134DA02146284600F048F928BBA3680130013B9E
S1134DB0A36023685A1C22601E706369834204D076
S1134DC0A389DB0719D50A2E17D12146284600F0FE
S1134DD033F990B10FE00B4B9C4201D1AC68D0E7A2
S1134DE0094B9C4208BFEC68CBE72146284600F0FB
S1134DF01FF80028CCD04FF0FF373846F8BD00BF6D
S1134E0058560000785600003856000038B505465C
S1134E10084611460022054C22601A46FFF7B6F9EF
S1134E20431C02D1236803B12B6038BD64250020E4
S1134E30324B70B51D6806460C4625B1AB6913B9F3
S1134E402846FFF795FB2E4B9C420FD16C68B4F9B2
S1134E500C309AB215072CD4D00611D40922326032
S1134E6043F04003A3814FF0FF303EE0254B9C42CA
S1134E7001D1AC68EBE7244B9C4208BFEC68E6E741
S1134E80510712D5616B41B104F14403994202D038
S1134E90304600F081F900236363A38923F02403DF
S1134EA0A3810023636023692360A38943F008037B
S1134EB0A38123694BB9A38903F42073B3F5007F5D
S1134EC003D02146304600F017F9A28912F00103FD
S1134ED00CD00023A36063695B42A361236953B9C7
S1134EE0B4F90C3013F08000BAD170BD920758BFEA
S1134EF06369A360F2E70020F7E700BF1000002019
S1134F0058560000785600003856000038B5002383
S1134F10054C05460846236000F0BEF9431C02D147
S1134F20236803B12B6038BD642500208A892DE9EC
S1134F30F041054610070C4658D44B68002B05DC9D
S1134F400B6C002B02DC0020BDE8F081E66A002E29
S1134F50F9D0002312F480522F68216A2B6032D0DA
S1134F60606DA3895A0705D56368C01A636B0BB1DA
S1134F70236CC01A00230246E66A216A2846B04719
S1134F80431CA38906D129681D2948D8294ACA4047
S1134F90D60744D5002262602269D904226004D570
S1134FA0421C01D12B6803B96065616B2F60002935
S1134FB0C9D004F14403994202D0284600F0ECF829
S1134FC000206063C0E701232846B047411CC8D1D4
S1134FD02B68002BC5D01D2B01D0162B01D12F60BF
S1134FE0B1E7A38943F04003A381ADE70F69002F24
S1134FF0A9D0930718BF00230E6808BF4B69A6EB1E
S113500007080F608B60B8F1000F9CDD43463A46F9
S1135010216A2846A66AB047002806DCA38943F023
S11350204003A3814FF0FF308EE70744A8EB00084C
S1135030E9E700BF0100402038B50B6905460C467E
S1135040DBB118B183690BB9FFF792FA0C4B9C42A0
S113505009D16C68B4F90C307BB121462846BDE80F
S11350603840FFF763BF074B9C4201D1AC68F1E7BE
S1135070054B9C4208BFEC68ECE7002038BD00BF3C
S113508058560000785600003856000038B50546DA
S1135090084611460022054C22601A4600F014F915
S11350A0431C02D1236803B12B6038BD6425002062
S11350B070B50E46B1F90E1096B0002914461D467F
S11350C007DA00232B60B3891A0610D44FF48063E7
S11350D00EE06A4600F0BEF80028F2DB019A02F402
S11350E07042A2F500535A425A412A60EEE7402327
S11350F00020236016B070BD8B8973B59D070646EA
S11351000C4607D504F1470323602361012363613F
S113511002B070BD01AB6A46FFF7CAFF00990546AD
S11351203046FFF7AFFA48B9B4F90C309A05EFD41A
S113513023F0030343F00203A381E3E70D4BB362BF
S1135140A389206043F08003A381009B20616361F5
S1135150019B5BB1B4F90E10304600F08DF828B114
S1135160A38923F0030343F00103A381A3891D430F
S1135170A581CDE73945000010B5C9B2024490427B
S1135180034601D1002303E01C7801308C42F6D1A0
S1135190184610BD7047704738B50546002943D0FE
S11351A051F8043C0C1F002BB8BFE418FFF7F2FFC2
S11351B01E4A1368104633B9636014602846BDE87C
S11351C03840FFF7E8BFA3420BD921686218934225
S11351D001BF1A685B685218226063600460EDE7DF
S11351E013465A680AB1A242FAD919685818A0425B
S11351F00BD120680144581882421960DED110682E
S11352005268014419605A60D8E702D90C232B6014
S1135210D4E7206821188A4201BF1168526809182E
S1135220216062605C60C9E738BD00BF04250020CE
S113523038B50546084611460022054C22601A4638
S113524000F04AF8431C02D1236803B12B6038BD37
S11352506425002038B50023064C0546084611464F
S1135260236000F021F8431C02D1236803B12B60B2
S113527038BD00BF6425002038B50023054C054621
S11352800846236000F018F8431C02D1236803B1D8
S11352902B6038BD642500205822024B4FF0FF30AC
S11352A01A607047642500205822024B4FF0FF30EB
S11352B01A607047642500205822024B00201A60AF
S11352C0704700BF642500205822024B4FF0FF3086
S11352D01A607047642500205822024B4FF0FF30BB
S11352E01A60704764250020044A05491368002B9E
S11352F008BF0B4618441060184670470C25002060
S113530068250020FEE700BFF8B500BFF8BC08BC64
S11353109E467047F8B500BFF8BC08BC9E4670476F
S1135320040000000200000004000000030000006C
S11353302E2E2F4672656552544F532F65666D337A
S11353403267672F686561705F312E63000000006B
S11353502E2E2F4672656552544F532F65666D335A
S11353603267672F706F72745F6763632E63000028
S11353702E2E2F4672656552544F532F65666D333A
S11353803267672F71756575652E63002E2E2F4663
S113539072656552544F532F65666D333267672FBC
S11353A07461736B732E630049444C450000000024
S11353B0546D7220537663002E2E2F46726565520B
S11353C0544F532F65666D333267672F74696D656B
S11353D072732E6300000000546D725100000000CF
S11353E02E2E2F656D6C69622F656D5F6275727408
S11353F0632E6300633A5C73696C69636F6E6C61FE
S113540062735C73696D706C6963697479737475C4
S113541064696F5C76345C646576656C6F70657224
S11354205C73646B735C6765636B6F5F73646B5F02
S113543073756974655C76322E375C706C61746662
S11354406F726D5C656D6C69625C696E635C656DE1
S11354505F636F6D6D6F6E2E68000000633A5C735E
S1135460696C69636F6E6C6162735C73696D706C97
S1135470696369747973747564696F5C76345C64A8
S11354806576656C6F7065725C73646B735C67657D
S1135490636B6F5F73646B5F73756974655C76329D
S11354A02E375C706C6174666F726D5C656D6C69CF
S11354B0625C696E635C656D5F636D752E68000088
S11354C02E2E2F656D6C69622F656D5F636D752E71
S11354D063000000633A5C73696C69636F6E6C61AE
S11354E062735C73696D706C6963697479737475E4
S11354F064696F5C76345C646576656C6F70657244
S11355005C73646B735C6765636B6F5F73646B5F21
S113551073756974655C76322E375C706C61746681
S11355206F726D5C656D6C69625C696E635C656D00
S11355305F6770696F2E68002E2E2F656D6C69622F
S11355402F656D5F6770696F2E630000080911088D
S11355502E2E2F656D6C69622F656D5F6932632E27
S1135560630000002E2E2F656D6C69622F656D5FE0
S113557073797374656D2E630000000001010000EF
S113558000300000010000000000000001000000E5
S11355904461746120584C20583A2025690A00005F
S11355A0496E697453656D6170686F72653A202540
S11355B064200A00526561644932435461736B008C
S11355C057726974654F75747075745461736B00A8
S11355D001010000000000006067010000000000FD
S11355E0493243206779726F3A2025303258200AB5
S11355F02056616C6F7220657370657261743A2015
S113560025303258200A0000493243204D61676E2C
S113561065743A2025303258200A2056616C6F7226
S113562020657370657261743A2025303258200AFF
S11356300000000014000020000000000000000032
S11356400000000000000000000000000000000056
S11356500000000000000000000000000000000046
S11356600000000000000000000000000000000036
S11356700000000000000000000000000000000026
S11356800000000000000000000000000000000016
S11356900000000000000000232D302B2000686C67
S11356A04C00656667454647003031323334353641
S11356B0373839414243444546003031323334357A
S11356C036373839616263646566000000000000A3
S10B56D04CAAFF7F0100000059
S11356D8006CDC0200800000809FD500AAAAAAAA58
S11356E814000020000000005856000078560000FE
S11356F83856000000000000000000000000000010
S1135708000000000000000000000000000000008D
S1135718000000000000000000000000000000007D
S1135728000000000000000000000000000000006D
S1135738000000000000000000000000000000005D
S10F57480000000001010000DD00000072
S9030301F8
